{
  "contractName": "Marketplace",
  "abi": [
    {
      "inputs": [],
      "payable": false,
      "stateMutability": "nonpayable",
      "type": "constructor"
    },
    {
      "anonymous": false,
      "inputs": [
        {
          "indexed": false,
          "internalType": "uint256",
          "name": "id",
          "type": "uint256"
        },
        {
          "indexed": false,
          "internalType": "uint256",
          "name": "price",
          "type": "uint256"
        },
        {
          "indexed": false,
          "internalType": "string",
          "name": "name",
          "type": "string"
        },
        {
          "indexed": false,
          "internalType": "string",
          "name": "description",
          "type": "string"
        },
        {
          "indexed": false,
          "internalType": "address payable",
          "name": "owner",
          "type": "address"
        },
        {
          "indexed": false,
          "internalType": "bool",
          "name": "purchased",
          "type": "bool"
        }
      ],
      "name": "productCreate",
      "type": "event"
    },
    {
      "anonymous": false,
      "inputs": [
        {
          "indexed": false,
          "internalType": "uint256",
          "name": "id",
          "type": "uint256"
        },
        {
          "indexed": false,
          "internalType": "uint256",
          "name": "price",
          "type": "uint256"
        },
        {
          "indexed": false,
          "internalType": "string",
          "name": "name",
          "type": "string"
        },
        {
          "indexed": false,
          "internalType": "string",
          "name": "description",
          "type": "string"
        },
        {
          "indexed": false,
          "internalType": "address payable",
          "name": "owner",
          "type": "address"
        },
        {
          "indexed": false,
          "internalType": "bool",
          "name": "purchased",
          "type": "bool"
        }
      ],
      "name": "productPurchase",
      "type": "event"
    },
    {
      "constant": true,
      "inputs": [],
      "name": "description",
      "outputs": [
        {
          "internalType": "string",
          "name": "",
          "type": "string"
        }
      ],
      "payable": false,
      "stateMutability": "view",
      "type": "function"
    },
    {
      "constant": true,
      "inputs": [],
      "name": "name",
      "outputs": [
        {
          "internalType": "string",
          "name": "",
          "type": "string"
        }
      ],
      "payable": false,
      "stateMutability": "view",
      "type": "function"
    },
    {
      "constant": true,
      "inputs": [],
      "name": "productCount",
      "outputs": [
        {
          "internalType": "uint256",
          "name": "",
          "type": "uint256"
        }
      ],
      "payable": false,
      "stateMutability": "view",
      "type": "function"
    },
    {
      "constant": true,
      "inputs": [
        {
          "internalType": "uint256",
          "name": "",
          "type": "uint256"
        }
      ],
      "name": "products",
      "outputs": [
        {
          "internalType": "uint256",
          "name": "id",
          "type": "uint256"
        },
        {
          "internalType": "uint256",
          "name": "price",
          "type": "uint256"
        },
        {
          "internalType": "string",
          "name": "name",
          "type": "string"
        },
        {
          "internalType": "string",
          "name": "description",
          "type": "string"
        },
        {
          "internalType": "address payable",
          "name": "owner",
          "type": "address"
        },
        {
          "internalType": "bool",
          "name": "purchased",
          "type": "bool"
        }
      ],
      "payable": false,
      "stateMutability": "view",
      "type": "function"
    },
    {
      "constant": false,
      "inputs": [
        {
          "internalType": "string",
          "name": "_name",
          "type": "string"
        },
        {
          "internalType": "string",
          "name": "_description",
          "type": "string"
        },
        {
          "internalType": "uint256",
          "name": "_price",
          "type": "uint256"
        }
      ],
      "name": "createProduct",
      "outputs": [],
      "payable": false,
      "stateMutability": "nonpayable",
      "type": "function"
    },
    {
      "constant": false,
      "inputs": [
        {
          "internalType": "uint256",
          "name": "_id",
          "type": "uint256"
        }
      ],
      "name": "purchaseProduct",
      "outputs": [],
      "payable": true,
      "stateMutability": "payable",
      "type": "function"
    }
  ],
  "bytecode": "0x6080604052600060025534801561001557600080fd5b506040518060400160405280601481526020017f426c6f636b636861696e2044636f6d6d6572636500000000000000000000000081525060009080519060200190610061929190610067565b5061010c565b828054600181600116156101000203166002900490600052602060002090601f016020900481019282601f106100a857805160ff19168380011785556100d6565b828001600101855582156100d6579182015b828111156100d55782518255916020019190600101906100ba565b5b5090506100e391906100e7565b5090565b61010991905b808211156101055760008160009055506001016100ed565b5090565b90565b61109b806200011c6000396000f3fe6080604052600436106100555760003560e01c806306fdde031461005a57806338e76a03146100ea5780637284e416146101185780637acc0b20146101a8578063a142220914610314578063e0f6ef871461047d575b600080fd5b34801561006657600080fd5b5061006f6104a8565b6040518080602001828103825283818151815260200191508051906020019080838360005b838110156100af578082015181840152602081019050610094565b50505050905090810190601f1680156100dc5780820380516001836020036101000a031916815260200191505b509250505060405180910390f35b6101166004803603602081101561010057600080fd5b8101908080359060200190929190505050610546565b005b34801561012457600080fd5b5061012d610a85565b6040518080602001828103825283818151815260200191508051906020019080838360005b8381101561016d578082015181840152602081019050610152565b50505050905090810190601f16801561019a5780820380516001836020036101000a031916815260200191505b509250505060405180910390f35b3480156101b457600080fd5b506101e1600480360360208110156101cb57600080fd5b8101908080359060200190929190505050610b23565b6040518087815260200186815260200180602001806020018573ffffffffffffffffffffffffffffffffffffffff1673ffffffffffffffffffffffffffffffffffffffff16815260200184151515158152602001838103835287818151815260200191508051906020019080838360005b8381101561026d578082015181840152602081019050610252565b50505050905090810190601f16801561029a5780820380516001836020036101000a031916815260200191505b50838103825286818151815260200191508051906020019080838360005b838110156102d35780820151818401526020810190506102b8565b50505050905090810190601f1680156103005780820380516001836020036101000a031916815260200191505b509850505050505050505060405180910390f35b34801561032057600080fd5b5061047b6004803603606081101561033757600080fd5b810190808035906020019064010000000081111561035457600080fd5b82018360208201111561036657600080fd5b8035906020019184600183028401116401000000008311171561038857600080fd5b91908080601f016020809104026020016040519081016040528093929190818152602001838380828437600081840152601f19601f820116905080830192505050505050509192919290803590602001906401000000008111156103eb57600080fd5b8201836020820111156103fd57600080fd5b8035906020019184600183028401116401000000008311171561041f57600080fd5b91908080601f016020809104026020016040519081016040528093929190818152602001838380828437600081840152601f19601f82011690508083019250505050505050919291929080359060200190929190505050610cbc565b005b34801561048957600080fd5b50610492610f6d565b6040518082815260200191505060405180910390f35b60008054600181600116156101000203166002900480601f01602080910402602001604051908101604052809291908181526020018280546001816001161561010002031660029004801561053e5780601f106105135761010080835404028352916020019161053e565b820191906000526020600020905b81548152906001019060200180831161052157829003601f168201915b505050505081565b61054e610f73565b600360008381526020019081526020016000206040518060c00160405290816000820154815260200160018201548152602001600282018054600181600116156101000203166002900480601f0160208091040260200160405190810160405280929190818152602001828054600181600116156101000203166002900480156106195780601f106105ee57610100808354040283529160200191610619565b820191906000526020600020905b8154815290600101906020018083116105fc57829003601f168201915b50505050508152602001600382018054600181600116156101000203166002900480601f0160208091040260200160405190810160405280929190818152602001828054600181600116156101000203166002900480156106bb5780601f10610690576101008083540402835291602001916106bb565b820191906000526020600020905b81548152906001019060200180831161069e57829003601f168201915b505050505081526020016004820160009054906101000a900473ffffffffffffffffffffffffffffffffffffffff1673ffffffffffffffffffffffffffffffffffffffff1673ffffffffffffffffffffffffffffffffffffffff1681526020016004820160149054906101000a900460ff16151515158152505090506000816080015190506000826000015111801561075a5750600254826000015111155b61076357600080fd5b816020015134101561077457600080fd5b8160a001511561078357600080fd5b3373ffffffffffffffffffffffffffffffffffffffff168173ffffffffffffffffffffffffffffffffffffffff1614156107bc57600080fd5b33826080019073ffffffffffffffffffffffffffffffffffffffff16908173ffffffffffffffffffffffffffffffffffffffff168152505060018260a0019015159081151581525050816003600085815260200190815260200160002060008201518160000155602082015181600101556040820151816002019080519060200190610849929190610fc1565b506060820151816003019080519060200190610866929190610fc1565b5060808201518160040160006101000a81548173ffffffffffffffffffffffffffffffffffffffff021916908373ffffffffffffffffffffffffffffffffffffffff16021790555060a08201518160040160146101000a81548160ff0219169083151502179055509050508073ffffffffffffffffffffffffffffffffffffffff166108fc349081150290604051600060405180830381858888f19350505050158015610917573d6000803e3d6000fd5b507f64c6d07e0d9f9d53f96174d07e94031f83733c5e5bcfc505ccf020bca02167ae6002548360200151846040015185606001513360016040518087815260200186815260200180602001806020018573ffffffffffffffffffffffffffffffffffffffff1673ffffffffffffffffffffffffffffffffffffffff16815260200184151515158152602001838103835287818151815260200191508051906020019080838360005b838110156109da5780820151818401526020810190506109bf565b50505050905090810190601f168015610a075780820380516001836020036101000a031916815260200191505b50838103825286818151815260200191508051906020019080838360005b83811015610a40578082015181840152602081019050610a25565b50505050905090810190601f168015610a6d5780820380516001836020036101000a031916815260200191505b509850505050505050505060405180910390a1505050565b60018054600181600116156101000203166002900480601f016020809104026020016040519081016040528092919081815260200182805460018160011615610100020316600290048015610b1b5780601f10610af057610100808354040283529160200191610b1b565b820191906000526020600020905b815481529060010190602001808311610afe57829003601f168201915b505050505081565b6003602052806000526040600020600091509050806000015490806001015490806002018054600181600116156101000203166002900480601f016020809104026020016040519081016040528092919081815260200182805460018160011615610100020316600290048015610bdb5780601f10610bb057610100808354040283529160200191610bdb565b820191906000526020600020905b815481529060010190602001808311610bbe57829003601f168201915b505050505090806003018054600181600116156101000203166002900480601f016020809104026020016040519081016040528092919081815260200182805460018160011615610100020316600290048015610c795780601f10610c4e57610100808354040283529160200191610c79565b820191906000526020600020905b815481529060010190602001808311610c5c57829003601f168201915b5050505050908060040160009054906101000a900473ffffffffffffffffffffffffffffffffffffffff16908060040160149054906101000a900460ff16905086565b6000835111610cca57600080fd5b6000825111610cd857600080fd5b60008111610ce557600080fd5b6002600081548092919060010191905055506040518060c0016040528060025481526020018281526020018481526020018381526020013373ffffffffffffffffffffffffffffffffffffffff1681526020016000151581525060036000600254815260200190815260200160002060008201518160000155602082015181600101556040820151816002019080519060200190610d84929190610fc1565b506060820151816003019080519060200190610da1929190610fc1565b5060808201518160040160006101000a81548173ffffffffffffffffffffffffffffffffffffffff021916908373ffffffffffffffffffffffffffffffffffffffff16021790555060a08201518160040160146101000a81548160ff0219169083151502179055509050507f40636e11c7ae66061e86936f56012c25245379a7afee88d371a5ee15a8e1cfeb6002548285853360006040518087815260200186815260200180602001806020018573ffffffffffffffffffffffffffffffffffffffff1673ffffffffffffffffffffffffffffffffffffffff16815260200184151515158152602001838103835287818151815260200191508051906020019080838360005b83811015610ec2578082015181840152602081019050610ea7565b50505050905090810190601f168015610eef5780820380516001836020036101000a031916815260200191505b50838103825286818151815260200191508051906020019080838360005b83811015610f28578082015181840152602081019050610f0d565b50505050905090810190601f168015610f555780820380516001836020036101000a031916815260200191505b509850505050505050505060405180910390a1505050565b60025481565b6040518060c0016040528060008152602001600081526020016060815260200160608152602001600073ffffffffffffffffffffffffffffffffffffffff1681526020016000151581525090565b828054600181600116156101000203166002900490600052602060002090601f016020900481019282601f1061100257805160ff1916838001178555611030565b82800160010185558215611030579182015b8281111561102f578251825591602001919060010190611014565b5b50905061103d9190611041565b5090565b61106391905b8082111561105f576000816000905550600101611047565b5090565b9056fea265627a7a72315820924adc27a7bc3d7bb637b9d1e4f282da130d857c7fb5deafb8c69c6f949c155764736f6c63430005100032",
  "source": "pragma solidity >=0.5.0;\r\n\r\ncontract Marketplace{\r\n    string public name;\r\n    string public description;\r\n        uint public productCount=0;\r\n        mapping(uint=>Product) public products;\r\n        // Structure of how any product will look in the blochchain\r\n        struct Product{\r\n            uint id;\r\n            uint price;\r\n            string name;\r\n            string description;\r\n            address payable owner;\r\n            bool purchased;\r\n        }\r\n        //event to be called when any item is created in the blockchain\r\n        event productCreate(\r\n            uint id,\r\n            uint price,\r\n            string name,\r\n            string description,\r\n            address payable owner,\r\n            bool purchased\r\n        );\r\n        //event when any user purchases any item from the marketplace\r\n        event productPurchase(\r\n            uint id,\r\n            uint price,\r\n            string name,\r\n            string description,\r\n            address payable owner,\r\n            bool purchased\r\n        );\r\n    \r\n    constructor() public{\r\n        name=\"Blockchain Dcommerce\";\r\n    }\r\n    \r\n    //contract to create a Item and add to blockchain, if any user wants to buy can see it and buy it.\r\n    function createProduct(string memory _name, string memory _description,  uint _price) public {\r\n        //Make sure product details are correct\r\n        //check valid name:\r\n        require(bytes(_name).length > 0);\r\n        //check a valid description\r\n        require(bytes(_description).length > 0);\r\n        //Check if the price is not null\r\n        require(_price>0);\r\n        //Incrementing count of products\r\n        productCount ++;\r\n        //Create a product\r\n        products[productCount]= Product(productCount, _price,_name,_description, msg.sender, false);\r\n        // Trigger an event\r\n        emit productCreate(productCount, _price,_name,_description, msg.sender, false);\r\n        \r\n    }\r\n\r\n    //The contract to check and purchase the product, here we check that product id is valid, also if product not already sold, \r\n    //the buyer must have balance sufficient to the value of the product to buy, buyer and seller must not be the same person,\r\n    //when the ether raches the seller account transfer the ownership of product to buyer. \r\n    function purchaseProduct(uint _id) public payable{\r\n        //Fetch Product from the id\r\n        Product memory _product = products[_id];\r\n        // Fecth the owner of the product(account)\r\n        address payable _seller= _product.owner;\r\n        //Verify the product id:\r\n        require(_product.id>0 && _product.id<=productCount);\r\n        //require if the ether is enough to transfer\r\n        require(msg.value>=_product.price);\r\n        //Check if product is already sold to some other user\r\n        require(!_product.purchased);\r\n        //check is buyer and seller are not the same person\r\n        require(_seller!=msg.sender);\r\n        // Buy product: Transfer the ownership(the person who will call this function)\r\n        _product.owner=msg.sender;\r\n        //Mark as purchased\r\n        _product.purchased=true;\r\n        //Update it\r\n        products[_id]=_product;\r\n        // Transfer the ether price from buyer to seller\r\n        address(uint160(_seller)).transfer(msg.value);\r\n        // Trigger an event\r\n        emit productPurchase(productCount, _product.price,_product.name,_product.description, msg.sender, true);\r\n    }\r\n\r\n\r\n\r\n\r\n\r\n} \r\n",
  "sourcePath": "C:/Users/13523/Dcommerce/src/contracts/Marketplace.sol",
  "compiler": {
    "name": "solc",
    "version": "0.5.16+commit.9c3226ce.Emscripten.clang"
  },
  "schemaVersion": "3.3.2",
  "updatedAt": "2020-12-09T03:51:46.498Z",
  "networkType": "ethereum",
  "devdoc": {
    "methods": {}
  },
  "userdoc": {
    "methods": {}
  }
}